:100000000C9462000C948A000C948A000C948A0070
:100010000C948A000C948A000C948A000C948A0038
:100020000C948A000C948A000C948A000C948A0028
:100030000C948A000C948A000C948A000C948A0018
:100040000C9404070C948A000C94D2060C94AC0611
:100050000C948A000C948A000C948A000C948A00F8
:100060000C948A000C948A000000000023002600F3
:10007000290000000000240027002A0000000000E2
:10008000250028002B0004040404040404040202D4
:100090000202020203030303030301020408102007
:1000A0004080010204081020010204081020000012
:1000B0000008000201000003040700000000000027
:1000C00000004E0711241FBECFEFD8E0DEBFCDBF2A
:1000D00011E0A0E0B1E0E4E0F6E102C005900D928D
:1000E000AA3AB107D9F722E0AAEAB1E001C01D920D
:1000F000AA35B207E1F710E0C2E6D0E004C02197CC
:10010000FE010E94F50AC136D107C9F70E949C077B
:100110000C94000B0C940000AF92BF92CF92DF9230
:10012000EF92FF920F931F93CF93DF936C017B01AC
:100130008B01040F151FEB015E01AE18BF08C0173D
:10014000D10759F06991D601ED91FC910190F081B0
:10015000E02DC6010995892B79F7C501DF91CF9173
:100160001F910F91FF90EF90DF90CF90BF90AF90D5
:100170000895FC01538D448D252F30E0842F90E0AD
:10018000821B930B541710F0CF9608950197089592
:10019000FC01918D828D981761F0A28DAE0FBF2F5B
:1001A000B11D5D968C91928D9F5F9F73928F90E0B1
:1001B00008958FEF9FEF0895FC01918D828D981720
:1001C00031F0828DE80FF11D858D90E008958FEF5D
:1001D0009FEF0895FC01918D228D892F90E0805C26
:1001E0009F4F821B91098F739927089583EB91E0AC
:1001F0000E94EA0021E0892B09F420E0822F089573
:1002000080E090E0892B29F00E94F60081110C9487
:1002100000000895FC01A48DA80FB92FB11DA35AA9
:10022000BF4F2C91848D90E001968F739927848F16
:10023000A689B7892C93A089B1898C918370806439
:100240008C93938D848D981306C00288F389E02DDA
:1002500080818F7D80830895EF92FF920F931F938B
:10026000CF93DF93EC0181E0888F9B8D8C8D981369
:100270001AC0E889F989808185FF15C09FB7F89475
:10028000EE89FF896083E889F989808183708064C1
:1002900080839FBF81E090E0DF91CF911F910F910C
:1002A000FF90EF900895F62E0B8D10E00F5F1F4F1B
:1002B0000F731127E02E8C8D8E110CC00FB607FC2A
:1002C000FACFE889F989808185FFF5CFCE010E94B8
:1002D0000A01F1CFEB8DEC0FFD2FF11DE35AFF4F1B
:1002E000F0829FB7F8940B8FEA89FB898081806246
:1002F000CFCFCF93DF93EC01888D8823B9F0AA8903
:10030000BB89E889F9898C9185FD03C0808186FDD0
:100310000DC00FB607FCF7CF8C9185FFF2CF80811F
:1003200085FFEDCFCE010E940A01E9CFDF91CF9189
:10033000089590E0FC01E255FF4F2491FC01E65640
:10034000FF4F3491FC01EA57FF4FE491EE23C9F0CF
:10035000222339F0233001F1A8F4213019F12230A1
:1003600029F1F0E0EE0FFF1FE458FF4FA591B49183
:100370008FB7F894EC91611126C030953E233C93E1
:100380008FBF08952730A9F02830C9F0243049F7ED
:10039000809180008F7D03C0809180008F77809353
:1003A0008000DFCF84B58F7784BDDBCF84B58F7DB0
:1003B000FBCF8091B0008F778093B000D2CF809137
:1003C000B0008F7DF9CF3E2BDACF3FB7F894809104
:1003D000AF019091B001A091B101B091B20126B5E9
:1003E000A89B05C02F3F19F00196A11DB11D3FBF6D
:1003F000BA2FA92F982F8827BC01CD01620F711D3C
:10040000811D911D42E0660F771F881F991F4A9535
:10041000D1F708958F929F92AF92BF92CF92DF92C1
:10042000EF92FF924B015C010E94E5016B017C01A0
:100430000E94E5016C197D098E099F09683E734091
:1004400081059105A8F321E0821A9108A108B1085D
:1004500088EEC80E83E0D81EE11CF11C81149104C3
:10046000A104B10429F7FF90EF90DF90CF90BF90E7
:10047000AF909F908F9008956F927F928F929F92EE
:10048000AF92BF92CF92DF92EF92FF920F931F93A2
:10049000CF93DF93CDB7DEB7AC970FB6F894DEBF3E
:1004A0000FBECDBFDC011696ED91FC91319609F49B
:1004B0008BC059013A016B018C01FE0131964F014D
:1004C00088E2DF011D928A95E9F7D801ED91FC9150
:1004D0000484F585E02DB401C80109957C01892BC0
:1004E00009F05CC01AA619A61CA61BA6D801ED919E
:1004F000FC910684F785E02D9E01255D3F4FAE01FE
:10050000475D5F4FB401C80109957C01892B09F053
:1005100045C0A114B10439F088E2F401D50101907D
:100520000D928A95E1F7C114D10409F189A59AA524
:1005300021E030E097FF02C02FEF3FEF9F77829FCF
:10054000B001839F700D929F700D1124072E000C37
:10055000880B990B0E94AC0920E030E040E251E4A6
:100560000E940209F6016083718382839383611480
:100570007104A1F06BA57CA5072E000C880B990BCC
:100580000E94AC0920E030E040E251E40E94020900
:10059000D3016D937D938D939C931397C701AC9674
:1005A0000FB6F894DEBF0FBECDBFDF91CF911F9184
:1005B0000F91FF90EF90DF90CF90BF90AF909F9002
:1005C0008F907F906F90089587E1E82EF12CE6CF11
:1005D0008F929F92AF92BF92CF92DF92EF92FF9253
:1005E0000F931F93CF93DF93EC018B016A01790185
:1005F000E881F9810284F385E02D0995B82EB801D0
:10060000685F7F4FE881F9810284F385E02DCE0198
:100610000995982EB801605F7F4FE881F9810284C7
:10062000F385E02DCE010995A82EB801685E7F4FB5
:10063000E881F9810284F385E02DCE010995882EA9
:10064000B801605E7F4FE881F9810284F385E02D77
:10065000CE0109959B2D990D9A0D980D891319C0FE
:100660009A2D882DF601918380839B2D892DF7018A
:100670009183808390E080E0DF91CF911F910F9173
:10068000FF90EF90DF90CF90BF90AF909F908F90B2
:10069000089585E190E0F0CF47E050E080E0FB0175
:1006A0002191BF01042E01C0220F0A94EAF7820FA4
:1006B00041505109A0F708953F924F925F926F9277
:1006C0007F928F929F92AF92BF92CF92DF92EF92E2
:1006D000FF920F931F93CF93DF93EC01162F7A01B4
:1006E00069010E94E5014B015C01312C1111388434
:1006F0003601660C771C660C771C85E0681A710859
:100700002701440C551C440C551C85E0481A51081F
:1007100010E000E060E070E0CB012A813B814C8179
:100720005D8126173707480759070CF10115110598
:1007300099F582E0E816F1041CF0C2010197F1F787
:100740000E94E501681979098A099B09E985F0E0A9
:10075000EE0FFF1FE859FF4FA591B4912C910F5F49
:100760001F4F38852323231105C097FFD6CF6FEF86
:100770007FEFCB01DF91CF911F910F91FF90EF9011
:10078000DF90CF90BF90AF909F908F907F906F90B1
:100790005F904F903F90089582E0C816D10484F294
:1007A000C301CCCFDC0117967C936E931697FB01A7
:1007B000E656FF4FE4911896EC9318976A577F4FCF
:1007C000FB01649119966C930895CF92DF92EF929A
:1007D000FF920F931F93CF93DF93EC017A0169018E
:1007E0000E94D203E881F9810480F581E02D98010F
:1007F000A601B701CE01DF91CF911F910F91FF901C
:10080000EF90DF90CF900994CF92DF92EF92FF921A
:100810000F931F93CF93DF93EC017A0169010E943C
:10082000D203E881F9810190F081E02D9801A601C1
:10083000B701CE01DF91CF911F910F91FF90EF9003
:10084000DF90CF900994CF92DF92EF92FF920F93B7
:100850001F93CF93DF93CDB7DEB728970FB6F894E9
:10086000DEBF0FBECDBFDC011696ED91FC91319637
:1008700009F440C08A017B0119821A821B821C8202
:100880001D821E821F821886DC01ED91FC9104807E
:10089000F581E02DAE014B5F5F4FBE016F5F7F4F73
:1008A00009956C01892BB1F4E114F10441F06981DF
:1008B0007A818B819C810E947409F7016083011504
:1008C000110541F06D817E818F8198850E947409A8
:1008D000D8016C93C60128960FB6F894DEBF0FBE00
:1008E000CDBFDF91CF911F910F91FF90EF90DF90DF
:1008F000CF90089587E1C82ED12CECCFFC01019058
:100900000020E9F73197AF01481B590BBC0183EB7D
:1009100091E00C948C008F929F92AF92BF920F93B4
:100920001F93CF93DF93CDB7DEB7A1970FB6F8949F
:10093000DEBF0FBECDBF19A2423008F44AE08E01DF
:100940000F5D1F4F842E912CB12CA12CA501940179
:100950000E94D30AE62FB901CA01EA30F4F4E05D3F
:10096000D801EE938D01232B242B252B79F790E0D2
:1009700080E0109719F0CD010E947E04A1960FB679
:10098000F894DEBF0FBECDBFDF91CF911F910F91C5
:10099000BF90AF909F908F900895E95CE1CFCF9387
:1009A000DF930E947E04EC018AE391E00E947E04C2
:1009B0008C0F9D1FDF91CF9108954F925F926F92A0
:1009C0007F928F929F92AF92BF92CF92DF92EF92DF
:1009D000FF920F931F93CF936B017C01742EAC0198
:1009E0009B010E94CE0A882399F08DE391E0CF917C
:1009F0001F910F91FF90EF90DF90CF90BF90AF903D
:100A00009F908F907F906F905F904F900C947E049A
:100A100046015701E894B7F82FEF3FEF4FE75FE744
:100A2000C501B4010E94CE0A81110DC02FEF3FEF26
:100A30004FE75FE7C501B4010E94FD0818161CF4DA
:100A400081E491E0D4CF2FEF3FEF4FE75FE4C701A0
:100A5000B6010E945C0A18161CF485E491E0C7CF29
:100A60002FEF3FEF4FE75FECC701B6010E94FD0893
:100A700087FDF3CF20E030E0A901C701B6010E9455
:100A8000FD0810E000E087FF0AC06DE283EB91E013
:100A90000E942C018C01F7FAF094F7F8F094C0E072
:100AA00060E070E080E09FE37C1641F020E030E001
:100AB00040E251E40E940209CF5FF6CFA701960100
:100AC0000E9491082B013C010E947B094B015C01B3
:100AD0004AE00E948B047C01E00EF11ECC23C1F1A0
:100AE000C501B4010E94AA099B01AC01C301B20176
:100AF0000E9490084B015C016EE283EB91E00E9442
:100B00002C01E80EF91EC15018F120E030E040E25F
:100B100051E4C501B4010E94610A2B013C010E940D
:100B20007B094B01B12CA12C4AE0C501B4010E9404
:100B30008B04E80EF91EC501B4010E94AA099B01AD
:100B4000AC01C301B2010E9490084B015C01DBCFF4
:100B5000C701CF911F910F91FF90EF90DF90CF9041
:100B6000BF90AF909F908F907F906F905F904F90CD
:100B700008950E94FB0AEF92FF920F931F93CF9369
:100B8000DF93EC018B0188E2DB011D928A95E9F786
:100B90008E819F819927FC01E656FF4F24918A5749
:100BA0009F4FFC018491882399F090E0880F991F52
:100BB000FC01EE58FF4FA591B491FC01E458FF4FA2
:100BC000859194918FB7F894EC91E22BEC938FBFC1
:100BD00060E08E810E9499018BE99FE00197F1F717
:100BE00061E08E810E9499018E819F819927FC018D
:100BF000E656FF4F24918A579F4FFC01849188232A
:100C0000C9F090E0880F991FFC01EE58FF4FA591A5
:100C1000B491FC01E458FF4F459154919FB7F8946B
:100C20008C91E22FE0958E238C93DA018C91E8234E
:100C3000EC939FBF8BE990E00197F1F7E881F98190
:100C40000084F185E02D26E030E04AE050E060E0ED
:100C5000CE0109956E317105810591056CF4982FCF
:100C6000872F762F66276061CB01DF91CF911F918F
:100C70000F91FF90EF900895E881F9810084F1854C
:100C8000E02D26E030E04AE050E061E0CE01099539
:100C90007801B8E2EB0EF11C623371058105910514
:100CA00034F4982F872F762F66276161DDCFE88196
:100CB000F9810084F185E02D26E030E04AE050E043
:100CC00060E0CE010995683171058105910534F424
:100CD000982F872F762F66276261C6CFE881F9812A
:100CE0000084F185E02D26E030E04AE050E061E04C
:100CF000CE0109956B3071058105910534F4982F6B
:100D0000872F762F66276361AFCF21E069327105A7
:100D1000810591050CF420E0F80121938F01EE1577
:100D2000FF0529F6E881F9810084F185E02D26E0B0
:100D300030E04AE050E060E0CE010995683171058D
:100D40008105910534F4982F872F762F66276461EB
:100D50008BCF70E060E088CF1F920F920FB60F929A
:100D600011242F933F934F935F936F937F938F93B0
:100D70009F93AF93BF93EF93FF9383EB91E00E9418
:100D80000A01FF91EF91BF91AF919F918F917F9158
:100D90006F915F914F913F912F910F900FBE0F90E8
:100DA0001F9018951F920F920FB60F9211242F9338
:100DB0008F939F93EF93FF93E091C301F091C40150
:100DC0008081E091C901F091CA0182FD1BC0908130
:100DD0008091CC018F5F8F732091CD01821741F0FC
:100DE000E091CC01F0E0ED54FE4F958F8093CC0163
:100DF000FF91EF919F918F912F910F900FBE0F90C8
:100E00001F9018958081F4CF1F920F920FB60F920A
:100E100011242F933F938F939F93AF93BF93809110
:100E2000AB019091AC01A091AD01B091AE013091B8
:100E3000AA0123E0230F2D3758F50196A11DB11DFE
:100E40002093AA018093AB019093AC01A093AD01D4
:100E5000B093AE018091AF019091B001A091B1012A
:100E6000B091B2010196A11DB11D8093AF01909385
:100E7000B001A093B101B093B201BF91AF919F9126
:100E80008F913F912F910F900FBE0F901F9018954B
:100E900026E8230F0296A11DB11DD2CFCF93DF9379
:100EA000E3EBF1E01382128288EE93E0A0E0B0E081
:100EB00084839583A683B78384E091E091838083C4
:100EC00085EC90E09587848784EC90E0978786870F
:100ED00080EC90E0918B808B81EC90E0938B828B07
:100EE00082EC90E0958B848B86EC90E0978B868BE0
:100EF000118E128E138E148EC0E5D2E086E191E041
:100F00009983888380E49BE4ACE4B0E08A839B838C
:100F1000AC83BD838FEF9FEF9F838E838887898704
:100F200062E070E0CE010E94D2038AE291E09983F0
:100F30008883DF91CF910895CF93DF93CDB7DEB74C
:100F400028970FB6F894DEBF0FBECDBF789484B556
:100F5000826084BD84B5816084BD85B5826085BDB5
:100F600085B5816085BD80916E00816080936E0043
:100F70001092810080918100826080938100809135
:100F800081008160809381008091800081608093E6
:100F900080008091B10084608093B1008091B000A6
:100FA00081608093B00080917A00846080937A00A1
:100FB00080917A00826080937A0080917A008160CB
:100FC00080937A0080917A00806880937A001092F2
:100FD000C100E091C301F091C40182E08083E091FF
:100FE000BF01F091C0011082E091C101F091C201F6
:100FF00080E180831092CB01E091C701F091C8019C
:1010000086E08083E091C501F091C6018081806116
:101010008083E091C501F091C60180818860808362
:10102000E091C501F091C601808180688083E091E4
:10103000C501F091C60180818F7D808300E010E0C2
:1010400089E491E00E94CF048BE691E00E94CF04F6
:101050001D821E821F82188619821A821B821C82A0
:1010600030E020E0AE014F5F5F4FBE016B5F7F4F0E
:1010700080E592E00E943C026C01892B91F18BE7A4
:1010800091E00E947E040D2C000CEE08FF084AE05F
:10109000C701B601F7FE0DC06DE283EB91E00E943F
:1010A0002C0166277727CB016C197D098E099F09D2
:1010B0004AE00E948B048AE391E00E947E0460ED86
:1010C00077E080E090E00E940A020115110509F422
:1010D000B7CF0E94F600882309F4B2CF0E94000027
:1010E000AFCF83E991E00E947E046D817E818F8184
:1010F000988542E00E94DD048FE991E00E947E0421
:1011000069817A818B819C8142E00E94DD0485EABD
:1011100091E00E94CF0464EC79E080E090E0D3CFCE
:101120005058BB27AA270E94A8080C94220A0E94A4
:10113000140A38F00E941B0A20F039F49F3F19F47A
:1011400026F40C94110A0EF4E095E7FB0C940B0ABC
:10115000E92F0E94330A58F3BA176207730784070E
:10116000950720F079F4A6F50C94550A0EF4E09555
:101170000B2EBA2FA02D0B01B90190010C01CA0151
:10118000A0011124FF27591B99F0593F50F4503EFC
:1011900068F11A16F040A22F232F342F4427585FEE
:1011A000F3CF469537952795A795F0405395C9F706
:1011B0007EF41F16BA0B620B730B840BBAF09150BE
:1011C000A1F0FF0FBB1F661F771F881FC2F70EC05D
:1011D000BA0F621F731F841F48F487957795679530
:1011E000B795F7959E3F08F0B0CF9395880F08F01C
:1011F0009927EE0F9795879508950E94E70908F4BF
:1012000081E008950E9416090C94220A0E941B0A8C
:1012100058F00E94140A40F029F45F3F29F00C9422
:101220000B0A51110C94560A0C94110A0E94330AAD
:1012300068F39923B1F3552391F3951B550BBB2705
:10124000AA2762177307840738F09F5F5F4F220F4A
:10125000331F441FAA1FA9F335D00E2E3AF0E0E841
:1012600032D091505040E695001CCAF72BD0FE2F8B
:1012700029D0660F771F881FBB1F2617370748071F
:10128000AB07B0E809F0BB0B802DBF01FF279358D7
:101290005F4F3AF09E3F510578F00C940B0A0C9486
:1012A000560A5F3FE4F3983ED4F3869577956795A9
:1012B000B795F7959F5FC9F7880F911D969587950C
:1012C00097F90895E1E0660F771F881FBB1F62172B
:1012D00073078407BA0720F0621B730B840BBA0BE9
:1012E000EE1F88F7E09508950E947B096894B1117C
:1012F0000C94560A08950E943B0A88F09F5798F074
:10130000B92F9927B751B0F0E1F0660F771F881F0A
:10131000991F1AF0BA95C9F714C0B13091F00E9424
:10132000550AB1E008950C94550A672F782F882745
:10133000B85F39F0B93FCCF3869577956795B3954B
:10134000D9F73EF490958095709561957F4F8F4FBA
:101350009F4F0895E89409C097FB3EF490958095BF
:10136000709561957F4F8F4F9F4F9923A9F0F92F6B
:1013700096E9BB279395F695879577956795B795E9
:10138000F111F8CFFAF4BB0F11F460FF1BC06F5FCF
:101390007F4F8F4F9F4F16C0882311F096E911C0E1
:1013A000772321F09EE8872F762F05C0662371F002
:1013B00096E8862F70E060E02AF09A95660F771F16
:1013C000881FDAF7880F9695879597F90895990FF2
:1013D0000008550FAA0BE0E8FEEF16161706E807FF
:1013E000F907C0F012161306E407F50798F0621B20
:1013F000730B840B950B39F40A2661F0232B242BF5
:10140000252B21F408950A2609F4A140A6958FEF13
:10141000811D811D089597F99F6780E870E060E065
:1014200008959FEF80EC089500240A94161617067D
:1014300018060906089500240A94121613061406C5
:1014400005060895092E0394000C11F4882352F028
:10145000BB0F40F4BF2B11F460FF04C06F5F7F4FE0
:101460008F4F9F4F089557FD9058440F551F59F0C7
:101470005F3F71F04795880F97FB991F61F09F3F81
:1014800079F087950895121613061406551FF2CFAA
:101490004695F1DF08C0161617061806991FF1CFFA
:1014A00086957105610508940895E894BB27662721
:1014B0007727CB0197F908950E94E70908F48FEF89
:1014C00008950E94740A0C94220A0E94140A38F0AB
:1014D0000E941B0A20F0952311F00C940B0A0C9427
:1014E000110A11240C94560A0E94330A70F3959F36
:1014F000C1F3950F50E0551F629FF001729FBB270B
:10150000F00DB11D639FAA27F00DB11DAA1F649FA6
:101510006627B00DA11D661F829F2227B00DA11D59
:10152000621F739FB00DA11D621F839FA00D611DDF
:10153000221F749F3327A00D611D231F849F600D00
:10154000211D822F762F6A2F11249F5750409AF029
:10155000F1F088234AF0EE0FFF1FBB1F661F771FB5
:10156000881F91505040A9F79E3F510580F00C9480
:101570000B0A0C94560A5F3FE4F3983ED4F3869529
:1015800077956795B795F795E7959F5FC1F7FE2B20
:10159000880F911D9695879597F908950E94E70900
:1015A000880B990B0895A1E21A2EAA1BBB1BFD0103
:1015B0000DC0AA1FBB1FEE1FFF1FA217B307E40732
:1015C000F50720F0A21BB30BE40BF50B661F771F8A
:1015D000881F991F1A9469F760957095809590956A
:1015E0009B01AC01BD01CF010895EE0FFF1F0590D7
:1015F000F491E02D099481E090E0F8940C94000BB4
:04160000F894FFCF8C
:10160400000000002C018C00B9007901EA00C80038
:10161400DC000000000023040404B905B9055C03E0
:101624004C03B905E80200000000230404043C0252
:10163400E5035C034C03BB05E8020D0A006E616E12
:1016440000696E66006F7666003D3D3D3D3D3D3D63
:101654003D3D3D3D3D3D3D3D3D3D3D3D3D3D3D3DB6
:101664003D3D3D3D3D3D3D3D3D3D0053616D706C17
:10167400652044485432322E2E2E00526561642077
:101684004448543232206661696C65642C2065726A
:10169400723D0053616D706C65204F4B3A20002001
:0A16A4002A432C20002052482500A4
:107E0000112484B714BE81FFF0D085E080938100F7
:107E100082E08093C00088E18093C10086E0809377
:107E2000C20080E18093C4008EE0C9D0259A86E02C
:107E300020E33CEF91E0309385002093840096BBD3
:107E4000B09BFECF1D9AA8958150A9F7CC24DD24C4
:107E500088248394B5E0AB2EA1E19A2EF3E0BF2EE7
:107E6000A2D0813461F49FD0082FAFD0023811F036
:107E7000013811F484E001C083E08DD089C08234E0
:107E800011F484E103C0853419F485E0A6D080C0E4
:107E9000853579F488D0E82EFF2485D0082F10E0AE
:107EA000102F00270E291F29000F111F8ED06801E7
:107EB0006FC0863521F484E090D080E0DECF843638
:107EC00009F040C070D06FD0082F6DD080E0C81688
:107ED00080E7D80618F4F601B7BEE895C0E0D1E017
:107EE00062D089930C17E1F7F0E0CF16F0E7DF06D8
:107EF00018F0F601B7BEE89568D007B600FCFDCFD4
:107F0000A601A0E0B1E02C9130E011968C91119780
:107F100090E0982F8827822B932B1296FA010C0160
:107F200087BEE89511244E5F5F4FF1E0A038BF0790
:107F300051F7F601A7BEE89507B600FCFDCF97BE46
:107F4000E89526C08437B1F42ED02DD0F82E2BD052
:107F50003CD0F601EF2C8F010F5F1F4F84911BD097
:107F6000EA94F801C1F70894C11CD11CFA94CF0C13
:107F7000D11C0EC0853739F428D08EE10CD085E9AC
:107F80000AD08FE07ACF813511F488E018D01DD067
:107F900080E101D065CF982F8091C00085FFFCCF94
:107FA0009093C60008958091C00087FFFCCF809118
:107FB000C00084FD01C0A8958091C6000895E0E648
:107FC000F0E098E1908380830895EDDF803219F02E
:107FD00088E0F5DFFFCF84E1DECF1F93182FE3DFCA
:107FE0001150E9F7F2DF1F91089580E0E8DFEE27F6
:047FF000FF270994CA
:027FFE00040479
:0400000300007E007B
:00000001FF
