:100000000C9458000C9480000C9480000C94800098
:100010000C9480000C9480000C9480000C94800060
:100020000C9480000C9480000C9480000C94800050
:100030000C9480000C9480000C9480000C94800040
:100040000C94F2040C9480000C94C0040C949A0458
:100050000C9480000C9480000C9480000C94800020
:100060000C943C050C948000000000002500280042
:100070002B00040404040404040402020202020229
:10008000030303030303010204081020408001025C
:1000900004081020010204081020000000080002DB
:1000A00001000003040700000000000000007106CA
:1000B00011241FBECFEFD8E0DEBFCDBF11E0A0E01E
:1000C000B1E0ECE2F8E102C005900D92AE3DB1075F
:1000D000D9F723E0AEEDB1E001C01D92AD34B20717
:1000E000E1F710E0C8E5D0E004C02197FE010E94CE
:1000F0000E0CC735D107C9F70E94B3060C94140C37
:100100000C94000008950895AF92BF92CF92DF92B1
:10011000EF92FF920F931F93CF93DF936C017B01BC
:100120008B01040F151FEB015E01AE18BF08C0174D
:10013000D10759F06991D601ED91FC910190F081C0
:10014000E02DC6010995892B79F7C501DF91CF9183
:100150001F910F91FF90EF90DF90CF90BF90AF90E5
:100160000895FC01538D448D252F30E0842F90E0BD
:10017000821B930B541710F0CF96089501970895A2
:10018000FC01918D828D981761F0A28DAE0FBF2F6B
:10019000B11D5D968C91928D9F5F9F73928F90E0C1
:1001A00008958FEF9FEF0895FC01918D828D981730
:1001B00031F0828DE80FF11D858D90E008958FEF6D
:1001C0009FEF0895FC01918D228D892F90E0805C36
:1001D0009F4F821B91098F739927089581EA92E0BE
:1001E0000E94E20021E0892B09F420E0822F08958B
:1001F00080E090E0892B29F00E94EE0081110C94A0
:1002000000000895FC01A48DA80FB92FB11DA35AB9
:10021000BF4F2C91848D90E001968F739927848F26
:10022000A689B7892C93A089B1898C918370806449
:100230008C93938D848D981306C00288F389E02DEA
:1002400080818F7D80830895EF92FF920F931F939B
:10025000CF93DF93EC0181E0888F9B8D8C8D981379
:100260001AC0E889F989808185FF15C09FB7F89485
:10027000EE89FF896083E889F989808183708064D1
:1002800080839FBF81E090E0DF91CF911F910F911C
:10029000FF90EF900895F62E0B8D10E00F5F1F4F2B
:1002A0000F731127E02E8C8D8E110CC00FB607FC3A
:1002B000FACFE889F989808185FFF5CFCE010E94C8
:1002C0000201F1CFEB8DEC0FFD2FF11DE35AFF4F33
:1002D000F0829FB7F8940B8FEA89FB898081806256
:1002E000CFCFCF93DF93EC01888D8823B9F0AA8913
:1002F000BB89E889F9898C9185FD03C0808186FDE1
:100300000DC00FB607FCF7CF8C9185FFF2CF80812F
:1003100085FFEDCFCE010E940201E9CFDF91CF91A1
:10032000089590E0FC01E656FF4F2491FC01EA5746
:10033000FF4F3491FC01EE58FF4FE491EE23C9F0DA
:10034000222339F0233001F1A8F4213019F12230B1
:1003500029F1F0E0EE0FFF1FE859FF4FA591B4918E
:100360008FB7F894EC91611126C030953E233C93F1
:100370008FBF08952730A9F02830C9F0243049F7FD
:10038000809180008F7D03C0809180008F77809363
:100390008000DFCF84B58F7784BDDBCF84B58F7DC0
:1003A000FBCF8091B0008F778093B000D2CF809147
:1003B000B0008F7DF9CF3E2BDACF3FB7F894809114
:1003C000270290912802A0912902B0912A0226B515
:1003D000A89B05C02F3F19F00196A11DB11D3FBF7D
:1003E000BA2FA92F982F8827BC01CD01620F711D4C
:1003F000811D911D42E0660F771F881F991F4A9546
:10040000D1F708958F929F92AF92BF92CF92DF92D1
:10041000EF92FF920E94DD014B015C0180EDC82E3E
:1004200087E0D82EE12CF12C0E94DD0168197909B2
:100430008A099B09683E734081059105A8F321E074
:10044000C21AD108E108F10888EE880E83E0981EF0
:10045000A11CB11CC114D104E104F10429F7FF90DF
:10046000EF90DF90CF90BF90AF909F908F900895C6
:100470002091FF01260F3327331F21323105ECF481
:1004800020917702FC0190E080E0243069F082E066
:100490000895A091FF012191AC0141525E4FA40F3C
:1004A000B52FB11D2C930196861798F38091FF010B
:1004B000680F6093FF0180E0089581E00895109235
:1004C000770281E0809376021092510261E082E12E
:1004D0000E94910161E083E10E949101E9EBF0E06B
:1004E00080818E7F808380818D7F808388E480936C
:1004F000B80085E48093BC000895CF93DF9391E02A
:100500009093DE018823B9F0C091B800D091BA0071
:100510008091BC008A7B8093BC0060E082E10E94F5
:10052000910160E083E10E9491010E945F02D093FB
:10053000BA00C093B800DF91CF9108950895E0917B
:10054000300280912F02E81730F4F0E0EF5CFD4FAD
:10055000808190E008958FEF9FEF08959091300291
:1005600080912F022FEF3FEF981748F4E92FF0E02A
:10057000EF5CFD4F208130E09F5F90933002C90116
:10058000089580912F0290913002891B990B089554
:10059000CF92DF92EF92FF920F931F93CF93DF934F
:1005A0007C01CB018A012091A002222389F0EB017A
:1005B0006B01C40ED51ECC15DD0569F06991D7011C
:1005C000ED91FC910190F081E02DC7010995F3CFE9
:1005D000642F0E943802C801DF91CF911F910F91C3
:1005E000FF90EF90DF90CF900895CF93DF931F920D
:1005F000CDB7DEB769832091A0022223F9F02091C4
:100600009D02203258F021E030E0FC013383228348
:1006100090E080E00F90DF91CF91089580919E024D
:10062000E82FF0E0E358FD4F998190838F5F80932E
:100630009E0280939D0281E090E0ECCF61E0CE01CC
:1006400001960E943802F7CF90E080E00895FC0107
:1006500001900020E9F73197AF01481B590BBC010D
:1006600081EA92E00C9484008F929F92AF92BF92A5
:100670000F931F93CF93DF93CDB7DEB7A1970FB63C
:10068000F894DEBF0FBECDBF19A2423008F44AE095
:100690008E010F5D1F4F842E912CB12CA12CA50132
:1006A00094010E94EC0BE62FB901CA01EA30F4F480
:1006B000E05DD801EE938D01232B242B252B79F7B8
:1006C00090E080E0109719F0CD010E942703A196D9
:1006D0000FB6F894DEBF0FBECDBFDF91CF911F9153
:1006E0000F91BF90AF909F908F900895E95CE1CFFC
:1006F000CF93DF930E942703EC0182E191E00E94F7
:1007000027038C0F9D1FDF91CF9108954F925F9229
:100710006F927F928F929F92AF92BF92CF92DF9211
:10072000EF92FF920F931F93CF936B017C01742E76
:10073000AC019B010E94E70B882399F085E191E0D1
:10074000CF911F910F91FF90EF90DF90CF90BF90CE
:10075000AF909F908F907F906F905F904F900C9490
:10076000270346015701E894B7F82FEF3FEF4FE713
:100770005FE7C501B4010E94E70B81110DC02FEFA7
:100780003FEF4FE75FE7C501B4010E941D0A18164D
:100790001CF489E191E0D4CF2FEF3FEF4FE75FE406
:1007A000C701B6010E94750B18161CF48DE191E08B
:1007B000C7CF2FEF3FEF4FE75FECC701B6010E94B5
:1007C0001D0A87FDF3CF20E030E0A901C701B60183
:1007D0000E941D0A10E000E087FF0AC06DE281EA76
:1007E00092E00E9424018C01F7FAF094F7F8F0945B
:1007F000C0E060E070E080E09FE37C1641F020E024
:1008000030E040E251E40E94220ACF5FF6CFA70118
:1008100096010E94B1092B013C010E94940A4B01F0
:100820005C014AE00E9434037C01E00EF11ECC23FF
:10083000C1F1C501B4010E94C30A9B01AC01C3010F
:10084000B2010E94B0094B015C016EE281EA92E0C4
:100850000E942401E80EF91EC15018F120E030E09A
:1008600040E251E4C501B4010E947A0B2B013C0126
:100870000E94940A4B01B12CA12C4AE0C501B4019D
:100880000E943403E80EF91EC501B4010E94C30A98
:100890009B01AC01C301B2010E94B0094B015C0194
:1008A000DBCFC701CF911F910F91FF90EF90DF90A9
:1008B000CF90BF90AF909F908F907F906F905F9000
:1008C0004F90089585ED8093BC00809179029091BE
:1008D0007A02A0917B02B0917C020796A11DB11D06
:1008E00023E0B695A795979587952A95D1F72091FE
:1008F000BC0024FD03C01092770208954091790254
:1009000050917A0260917B0270917C02452B462BBC
:10091000472B69F30097A105B10541F025E32A951E
:10092000F1F700000197A109B109E1CF80917802A8
:100930000C947D021F920F920FB60F9211242F93E9
:100940003F934F935F936F937F938F939F93AF9357
:10095000BF93EF93FF9381EA92E00E940201FF911F
:10096000EF91BF91AF919F918F917F916F915F9127
:100970004F913F912F910F900FBE0F901F901895A0
:100980001F920F920FB60F9211242F938F939F9364
:10099000EF93FF93E091B102F091B2028081E09178
:1009A000B702F091B80282FD1BC090818091BA021B
:1009B0008F5F8F732091BB02821741F0E091BA02E2
:1009C000F0E0EF55FD4F958F8093BA02FF91EF91C4
:1009D0009F918F912F910F900FBE0F901F901895A0
:1009E0008081F4CF1F920F920FB60F9211242F9394
:1009F0003F938F939F93AF93BF93809123029091E6
:100A00002402A0912502B09126023091220223E017
:100A1000230F2D3758F50196A11DB11D20932202F9
:100A20008093230290932402A0932502B093260280
:100A30008091270290912802A0912902B0912A0268
:100A40000196A11DB11D8093270290932802A093C7
:100A50002902B0932A02BF91AF919F918F913F914C
:100A60002F910F900FBE0F901F90189526E8230F1F
:100A70000296A11DB11DD2CF1F920F920FB60F92F9
:100A800011242F933F934F935F936F937F938F9393
:100A90009F93AF93BF93EF93FF938091B900887FAB
:100AA000803609F44AC0F0F5883209F4A7C018F579
:100AB000803109F49BC0B8F4882309F4F9C0883068
:100AC00009F494C0FF91EF91BF91AF919F918F91E5
:100AD0007F916F915F914F913F912F910F900FBE3A
:100AE0000F901F901895883109F488C0803251F713
:100AF0008093750214C0803409F49DC040F48033A3
:100B0000B9F38833F9F68093750285ECB0C080356F
:100B100009F485C0883509F496C0883499F60E9496
:100B20006204D0CF883909F48CC038F5883729F0B1
:100B300050F4883611F0803729F683E080937702ED
:100B40001092210257C0883809F47BC0803919F00F
:100B5000803809F0B7CF80912102803208F071C04F
:100B6000E091210281E08E0F809321028091BB00F1
:100B7000F0E0EF5FFD4F80833DC0803B39F0E0F453
:100B8000803A09F479C0883A09F09CCF84E08093D8
:100B90007702109200021092FF01E0912D02F09175
:100BA0002E0209958091FF0181110FC081E0809391
:100BB000FF011092DF0109C0803C09F4A6CF883CF8
:100BC00009F4A3CF883B09F07DCFE091000281E0DA
:100BD0008E0F80930002F0E0E152FE4F80818093FF
:100BE000BB00909100028091FF0129C080915202C8
:100BF0008093BB0085EC8093BC0064CF909174021D
:100C000080917302981758F5E091740281E08E0F7D
:100C100080937402F0E0ED5AFD4F8081E9CFE091BE
:100C2000740281E08E0F809374028091BB00F0E02B
:100C3000ED5AFD4F80839091740280917302981752
:100C4000C8F285E8D8CFE091740281E08E0F8093DE
:100C500074028091BB00F0E0ED5AFD4F80838091DB
:100C6000760281115CCF81E08093510284EA809307
:100C7000BC001092770226CF85EC8093BC001092C6
:100C8000770280912102803230F4E0912102F0E07D
:100C9000EF5FFD4F10826091210270E0E0912B0226
:100CA000F0912C0281E092E00995109221020ACF86
:100CB0001092750234CFCF93DF93CDB7DEB72F9765
:100CC0000FB6F894DEBF0FBECDBFCE0101962F96B2
:100CD0000FB6F894DEBF0FBECDBFDF91CF910C945D
:100CE0005B06CF93DF93CDB7DEB72F970FB6F8949F
:100CF000DEBF0FBECDBFE1EAF2E01382128288EEC2
:100D000093E0A0E0B0E084839583A683B78384E07A
:100D100091E09183808385EC90E09587848784ECD3
:100D200090E09787868780EC90E0918B808B81ECB8
:100D300090E0938B828B82EC90E0958B848B86EC99
:100D400090E0978B868B118E128E138E148ECE01AF
:100D500001962F960FB6F894DEBF0FBECDBFDF9180
:100D6000CF910C945B06789484B5826084BD84B581
:100D7000816084BD85B5826085BD85B5816085BD96
:100D800080916E00816080936E001092810080914E
:100D900081008260809381008091810081608093D6
:100DA0008100809180008160809380008091B100FB
:100DB00084608093B1008091B00081608093B00026
:100DC00080917A00846080937A0080917A008260BA
:100DD00080937A0080917A00816080937A0080917C
:100DE0007A00806880937A001092C10010923002DD
:100DF00010922F0210929E0210929D020E945F029A
:100E000082E890E090932E0280932D0283E890E098
:100E100090932C0280932B02E091B102F091B202E8
:100E200082E08083E091AD02F091AE021082E09109
:100E3000AF02F091B00280E180831092B902E0919C
:100E4000B502F091B60286E08083E091B302F091A2
:100E5000B402808180618083E091B302F091B4029A
:100E6000808188608083E091B302F091B402808138
:100E700080688083E091B302F091B40280818F7D1D
:100E8000808381E291E00E94780385E591E00E94F1
:100E900027038DE691E00E94780382E191E00E94B1
:100EA00027030E94020283E791E00E94780325EE67
:100EB000D22E35ECC32E42E0A42EBB24BA9454E0CB
:100EC000752ED1E090E0E92E90E0F92E8CE5682EA9
:100ED0008FE991E00E94270380914B0390914C038E
:100EE000D093A00260929F0210929E0210929D02E7
:100EF000DC01ED91FC910190F081E02D60E009951D
:100F000010919D02113208F08FC0C0919F020E9483
:100F1000DD011B012C0180917702811160C0A0923C
:100F20007702D0937602B0927502109274021093F9
:100F30007302EDE7F2E0A3E5B2E01813E5C010920A
:100F4000520280915202CC0FC82BC0935202809162
:100F50005102813009F0DCC0109251020E94DD0183
:100F60001B012C01809152028093BB008091790279
:100F700090917A02A0917B02B0917C02892B8A2BFE
:100F80008B2B99F00E94DD010091790210917A0279
:100F900020917B0230917C026219730984099509C2
:100FA0000617170728073907D8F18091BC0083FD81
:100FB000D9CFC092BC000E94DD011B012C018091A1
:100FC0007702823009F4A7C0809175028F3F61F1EA
:100FD00080917502803241F18091750225C0809127
:100FE000790290917A02A0917B02B0917C02892BC8
:100FF0008A2B8B2B09F48FCF0E94DD01209179027F
:1010000030917A0240917B0250917C0262197309FF
:1010100084099509261737074807590708F07BCF39
:10102000809178020E947D0210929E0210929D0291
:101030001092A0020E94DD011B012C018091770219
:1010400081118BC0D0937702D0937602B092750253
:101050001092740270927302D093520280915202E5
:10106000886B8093520280915102813009F049C10E
:10107000109251020E94DD011B012C01809152024D
:101080008093BB008091790290917A02A0917B02BB
:10109000B0917C02892B8A2B8B2BA1F00E94DD0161
:1010A0000091790210917A0220917B0230917C02AA
:1010B0006219730984099509061717072807390764
:1010C00008F46CC08091BC0083FDD8CFC092BC00F6
:1010D0000E94DD011B012C0180917702813009F40F
:1010E00013C180917402853008F030C18091740280
:1010F000A3E5B2E0E1E3F2E090E0981709F453C011
:101100002D9121939F5FF9CF91919D938F5F15CF83
:10111000D092BC0050CF8091790290917A02A09138
:101120007B02B0917C02892B8A2B8B2B09F447CF51
:101130000E94DD010091790210917A0220917B02D8
:1011400030917C0262197309840995090617170703
:101150002807390708F033CF63CF80917902909147
:101160007A02A0917B02B0917C02892B8A2B8B2B77
:1011700009F464CF0E94DD010091790210917A0296
:1011800020917B0230917C026219730984099509D0
:10119000061717072807390708F050CF8091780203
:1011A0000E947D0280E01092300280932F02882EF0
:1011B000912C882309F4D1C08EEC91E0B5E08B1618
:1011C00091040CF470C00EE313E080914B039091F6
:1011D0004C03DC01ED91FC910284F385E02D09952F
:1011E000F80180870F5F1F4FC8018E539340881509
:1011F00099055CF3C091460390904703692D70E018
:1012000090E080E00E94C50A2DEC3CEC4CEC5DE3E4
:101210000E947A0B1B012C016C2F70E090E080E0A3
:101220000E94C50A9B01AC01C201B1010E94B10933
:1012300060933E0370933F03809340039093410378
:101240000091480310914903612F6F7770E090E09F
:1012500080E00E94C50A2DEC3CEC4CEC5DE30E9462
:101260007A0B1B012C01602F70E090E080E00E945F
:10127000C50A9B01AC01C201B1010E94B10917FD71
:1012800067C0609342037093430380934403909339
:101290004503C90DC00FC10F80914A03C81709F457
:1012A00059C088EA91E00E94270360913E03709143
:1012B0003F03809140039091410341E00E948603E7
:1012C0008BEB91E00E9427036091420370914303EE
:1012D000809144039091450341E00E94860382E19E
:1012E00091E00E9427030E940202E114F10409F434
:1012F000EFCD0E94EE00882309F4E8CD0E940000A3
:10130000E0CDD092BC00E4CE8091790290917A0237
:10131000A0917B02B0917C02892B8A2B8B2B09F444
:10132000DBCE0E94DD010091790210917A022091BA
:101330007B0230917C0262197309840995090617B2
:1013400017072807390708F0C7CE28CF85E0D0CE89
:10135000905897CF89EB91E0A6CF8EEB91E0A3CF89
:101360005058BB27AA270E94C8090C943B0B0E9427
:101370002D0B38F00E94340B20F039F49F3F19F404
:1013800026F40C942A0B0EF4E095E7FB0C94240B46
:10139000E92F0E944C0B58F3BA17620773078407B2
:1013A000950720F079F4A6F50C946E0B0EF4E095F9
:1013B0000B2EBA2FA02D0B01B90190010C01CA010F
:1013C000A0011124FF27591B99F0593F50F4503EBA
:1013D00068F11A16F040A22F232F342F4427585FAC
:1013E000F3CF469537952795A795F0405395C9F7C4
:1013F0007EF41F16BA0B620B730B840BBAF091507C
:10140000A1F0FF0FBB1F661F771F881FC2F70EC01A
:10141000BA0F621F731F841F48F4879577956795ED
:10142000B795F7959E3F08F0B0CF9395880F08F0D9
:101430009927EE0F9795879508950E94000B08F461
:1014400081E008950E94360A0C943B0B0E94340BF5
:1014500058F00E942D0B40F029F45F3F29F00C94C6
:10146000240B51110C946F0B0C942A0B0E944C0B03
:1014700068F39923B1F3552391F3951B550BBB27C3
:10148000AA2762177307840738F09F5F5F4F220F08
:10149000331F441FAA1FA9F335D00E2E3AF0E0E8FF
:1014A00032D091505040E695001CCAF72BD0FE2F49
:1014B00029D0660F771F881FBB1F261737074807DD
:1014C000AB07B0E809F0BB0B802DBF01FF27935895
:1014D0005F4F3AF09E3F510578F00C94240B0C942A
:1014E0006F0B5F3FE4F3983ED4F38695779567954D
:1014F000B795F7959F5FC9F7880F911D96958795CA
:1015000097F90895E1E0660F771F881FBB1F6217E8
:1015100073078407BA0720F0621B730B840BBA0BA6
:10152000EE1F88F7E09508950E94540B88F09F57AE
:1015300098F0B92F9927B751B0F0E1F0660F771FF7
:10154000881F991F1AF0BA95C9F714C0B13091F0ED
:101550000E946E0BB1E008950C946E0B672F782FEC
:101560008827B85F39F0B93FCCF3869577956795B2
:10157000B395D9F73EF490958095709561957F4F1E
:101580008F4F9F4F0895E89409C097FB3EF49095C4
:101590008095709561957F4F8F4F9F4F9923A9F04C
:1015A000F92F96E9BB279395F695879577956795DB
:1015B000B795F111F8CFFAF4BB0F11F460FF1BC01F
:1015C0006F5F7F4F8F4F9F4F16C0882311F096E9B2
:1015D00011C0772321F09EE8872F762F05C0662360
:1015E00071F096E8862F70E060E02AF09A95660F19
:1015F000771F881FDAF7880F9695879597F90895D2
:10160000990F0008550FAA0BE0E8FEEF1616170613
:10161000E807F907C0F012161306E407F50798F07B
:10162000621B730B840B950B39F40A2661F0232B94
:10163000242B252B21F408950A2609F4A140A69510
:101640008FEF811D811D089597F99F6780E870E0F5
:1016500060E008959FEF80EC089500240A94161628
:10166000170618060906089500240A941216130690
:10167000140605060895092E0394000C11F488231E
:1016800052F0BB0F40F4BF2B11F460FF04C06F5F3A
:101690007F4F8F4F9F4F089557FD9058440F551F10
:1016A00059F05F3F71F04795880F97FB991F61F0E4
:1016B0009F3F79F087950895121613061406551F5B
:1016C000F2CF4695F1DF08C0161617061806991FC7
:1016D000F1CF86957105610508940895E894BB27BC
:1016E00066277727CB0197F908950E94000B08F42D
:1016F0008FEF08950E948D0B0C943B0B0E942D0BD5
:1017000038F00E94340B20F0952311F00C94240B38
:101710000C942A0B11240C946F0B0E944C0B70F349
:10172000959FC1F3950F50E0551F629FF001729F86
:10173000BB27F00DB11D639FAA27F00DB11DAA1F95
:10174000649F6627B00DA11D661F829F2227B00DE2
:10175000A11D621F739FB00DA11D621F839FA00D6D
:10176000611D221F749F3327A00D611D231F849FBD
:10177000600D211D822F762F6A2F11249F57504014
:101780009AF0F1F088234AF0EE0FFF1FBB1F661F8F
:10179000771F881F91505040A9F79E3F510580F058
:1017A0000C94240B0C946F0B5F3FE4F3983ED4F33E
:1017B000869577956795B795F795E7959F5FC1F7FC
:1017C000FE2B880F911D9695879597F908950E9495
:1017D000000B880B990B0895A1E21A2EAA1BBB1BC4
:1017E000FD010DC0AA1FBB1FEE1FFF1FA217B307ED
:1017F000E407F50720F0A21BB30BE40BF50B661F03
:10180000771F881F991F1A9469F7609570958095C6
:1018100090959B01AC01BD01CF010895EE0FFF1F14
:0C1820000590F491E02D0994F894FFCF9E
:10182C000000000024018400B1007101E200C0003E
:10183C00D4000D0A006E616E00696E66006F7666EC
:10184C0000433A5C55736572735C557365725C4406
:10185C0065736B746F705C41726475696E6F204355
:10186C006F6465735C44485431325C444854313283
:10187C002E696E6F004448543132204C494252411B
:10188C0052592056455253494F4E3A2000302E3271
:10189C002E3100547970652C095374617475732C56
:1018AC000948756D6964697479202825292C0954B7
:1018BC00656D7065726174757265202843290044EA
:1018CC00485431322C200900436865636B73756D85
:1018DC00206572726F722C09004F4B2C0900436FFC
:1018EC006E6E656374206572726F722C09004D699F
:0E18FC007373696E672062797465732C09003E
:00000001FF
