:100000000C9499000C94C1000C94C1000C94C10094
:100010000C94C1000C94C1000C94C1000C94C1005C
:100020000C94C1000C94C1000C94C1000C94C1004C
:100030000C94C1000C94C1000C94C1000C94C1003C
:100040000C9440090C94C1000C940E090C94E8081F
:100050000C94C1000C94C1000C94C1000C94C1001C
:100060000C948A090C94C10007634236B79BD8A749
:100070001A39685618AEBAAB558C1D3CB7CC5763CD
:10008000BD6DEDFD753EF6177231BF000000803F7B
:1000900008000000BE922449123EABAAAA2ABECD97
:1000A000CCCC4C3E00000080BEABAAAAAA3E000009
:1000B0000000BF000000803F000000000008417801
:1000C000D3BB4387D1133D190E3CC3BD4282AD2B38
:1000D0003E68EC8276BED98FE1A93E4C80EFFFBE30
:1000E00001C4FF7F3F000000000000000000250069
:1000F00028002B0004040404040404040202020285
:1001000002020303030303030102040810204080DA
:100110000102040810200102040810200000000859
:1001200000020100000304070000000000000000BE
:10013000A90A11241FBECFEFD8E0DEBFCDBF11E06A
:10014000A0E0B1E0E6EFF1E202C005900D92A43D1F
:10015000B107D9F723E0A4EDB1E001C01D92A735A6
:10016000B207E1F710E0C9E9D0E004C02197FE0131
:100170000E94E410C839D107C9F70E94E20A0C9422
:10018000F9100C94000008950895AF92BF92CF9299
:10019000DF92EF92FF920F931F93CF93DF936C0147
:1001A0007B018B01040F151FEB015E01AE18BF0828
:1001B000C017D10759F06991D601ED91FC910190DA
:1001C000F081E02DC6010995892B79F7C501DF91F2
:1001D000CF911F910F91FF90EF90DF90CF90BF9044
:1001E000AF900895FC01538D448D252F30E0842F6E
:1001F00090E0821B930B541710F0CF96089501974F
:100200000895FC01918D828D981761F0A28DAE0F3B
:10021000BF2FB11D5D968C91928D9F5F9F73928FC2
:1002200090E008958FEF9FEF0895FC01918D828DEE
:10023000981731F0828DE80FF11D858D90E00895BB
:100240008FEF9FEF0895FC01918D228D892F90E013
:10025000805C9F4F821B91098F739927089587E9CE
:1002600092E00E94230121E0892B09F420E0822FF3
:10027000089580E090E0892B29F00E942F018111E0
:100280000C9400000895FC01A48DA80FB92FB11D96
:10029000A35ABF4F2C91848D90E001968F739927BC
:1002A000848FA689B7892C93A089B1898C9183709A
:1002B00080648C93938D848D981306C00288F38993
:1002C000E02D80818F7D80830895EF92FF920F93C0
:1002D0001F93CF93DF93EC0181E0888F9B8D8C8DF2
:1002E00098131AC0E889F989808185FF15C09FB7E6
:1002F000F894EE89FF896083E889F98980818370A9
:10030000806480839FBF81E090E0DF91CF911F9157
:100310000F91FF90EF900895F62E0B8D10E00F5F78
:100320001F4F0F731127E02E8C8D8E110CC00FB64E
:1003300007FCFACFE889F989808185FFF5CFCE01E6
:100340000E944301F1CFEB8DEC0FFD2FF11DE35A1D
:10035000FF4FF0829FB7F8940B8FEA89FB89808169
:100360008062CFCFCF93DF93EC01888D8823B9F0E3
:10037000AA89BB89E889F9898C9185FD03C08081B0
:1003800086FD0DC00FB607FCF7CF8C9185FFF2CF2D
:10039000808185FFEDCFCE010E944301E9CFDF913F
:1003A000CF91089590E0FC01E45EFE4F2491FC01A2
:1003B000E85FFE4F3491FC01EC50FF4FE491EE23D7
:1003C000C9F0222339F0233001F1A8F4213019F1CA
:1003D000223029F1F0E0EE0FFF1FE651FF4FA5910B
:1003E000B4918FB7F894EC91611126C030953E23FB
:1003F0003C938FBF08952730A9F02830C9F02430EE
:1004000049F7809180008F7D03C0809180008F77B5
:1004100080938000DFCF84B58F7784BDDBCF84B538
:100420008F7DFBCF8091B0008F778093B000D2CFCB
:100430008091B0008F7DF9CF3E2BDACF3FB7F89493
:1004400080911D0290911E02A0911F02B091200286
:1004500026B5A89B05C02F3F19F00196A11DB11D1F
:100460003FBFBA2FA92F982F8827BC01CD01620F5B
:10047000711D811D911D42E0660F771F881F991F16
:100480004A95D1F708958F929F92AF92BF92CF92E3
:10049000DF92EF92FF924B015C010E941E026B0102
:1004A0007C010E941E026C197D098E099F09683E1D
:1004B000734081059105A8F321E0821A9108A108F3
:1004C000B10888EEC80E83E0D81EE11CF11C81142F
:1004D0009104A104B10429F7FF90EF90DF90CF9031
:1004E000BF90AF909F908F9008952091F501260FB7
:1004F0003327331F21323105ECF420916D02FC01CA
:1005000090E080E0243069F082E00895A091F50148
:100510002191AC014B525E4FA40FB52FB11D2C930E
:100520000196861798F38091F501680F6093F501A5
:1005300080E0089581E0089510926D0281E080933B
:100540006C021092470261E082E10E94D20161E0F8
:1005500083E10E94D201E9EBF0E080818E7F80830D
:1005600080818D7F808388E48093B80085E48093C8
:10057000BC000895CF93DF9391E09093D40188233A
:10058000B9F0C091B800D091BA008091BC008A7BCC
:100590008093BC0060E082E10E94D20160E083E1D0
:1005A0000E94D2010E949C02D093BA00C093B8006E
:1005B000DF91CF910895CF92DF92EF92FF920F9348
:1005C0001F93CF93DF93D091960281E0D13208F050
:1005D0009CC0C09195020E941E026B017C0180911B
:1005E0006D0281116CC082E080936D0281E0809386
:1005F0006C028FEF80936B0210926A02D0936902B3
:10060000A5E7B2E0E9E4F2E080E0D8138DC01092F3
:10061000480280914802CC0FC82BC09348028091B9
:100620004702813009F084C0109247020E941E02E6
:100630006B017C01809148028093BB0080916F0226
:1006400090917002A0917102B0917202892B8A2B55
:100650008B2BA1F00E941E0200916F02109170027C
:1006600020917102309172026C197D098E099F09E7
:10067000061717072807390708F442C08091BC0005
:1006800083FDD8CF85EC8093BC000E941E026B01D5
:100690007C0180916D02823009F44CC080916B0224
:1006A0008F3F09F469C080916B02803209F466C003
:1006B00080916B02803309F463C084E026C080918E
:1006C0006F0290917002A0917102B0917202892B19
:1006D0008A2B8B2B09F483CF0E941E0200916F029C
:1006E0001091700220917102309172026C197D0993
:1006F0008E099F09061717072807390708F06FCFDB
:1007000080916E020E94BA0285E0109274021092EB
:10071000960210927302DF91CF911F910F91FF907B
:10072000EF90DF90CF9008959D9191938F5F6DCF63
:1007300085EEA9CF80916F0290917002A091710215
:10074000B0917202892B8A2B8B2B09F4A2CF0E94C5
:100750001E0200916F02109170022091710230917F
:1007600072026C197D098E099F0906171707280761
:10077000390708F08ECFC4CF80E0C7CF82E0C5CF65
:1007800083E0C3CFCF92DF92EF92FF920F931F933C
:10079000CF93DF93D82FC62F613208F098C00E9404
:1007A0001E026B017C0180916D0281116BC081E0A2
:1007B00080936D0280936C029FEF90936B02109276
:1007C0006A029C0F909369028093480280914802CC
:1007D000DD0FD82BD093480280914702813009F079
:1007E00078C0109247020E941E026B017C0180912A
:1007F00048028093BB0080916F0290917002A0919B
:100800007102B0917202892B8A2B8B2BA1F00E946E
:100810001E0200916F0210917002209171023091BE
:1008200072026C197D098E099F09061717072807A0
:10083000390708F448C08091BC0083FDD8CF85EC0F
:100840008093BC000E941E026B017C0180916D02AE
:10085000813009F440C080916A028C1710F4C09175
:100860006A02E9E4F2E0A7E2B2E080E08C1355C04E
:100870008C2FDF91CF911F910F91FF90EF90DF9020
:10088000CF90089580916F0290917002A0917102B3
:10089000B0917202892B8A2B8B2B09F484CF0E9492
:1008A0001E0200916F02109170022091710230912E
:1008B00072026C197D098E099F0906171707280710
:1008C000390708F070CF80916E020E94BA02C0E032
:1008D000CFCF85EEB5CF80916F0290917002A0913D
:1008E0007102B0917202892B8A2B8B2B09F4AECF47
:1008F0000E941E0200916F021091700220917102FD
:10090000309172026C197D098E099F09061717072D
:100910002807390708F09ACFD6CF91919D938F5F22
:10092000A5CF0895E091260280912502E81730F4C2
:10093000F0E0E95DFD4F808190E008958FEF9FEF3B
:10094000089590912602809125022FEF3FEF98178E
:1009500048F4E92FF0E0E95DFD4F208130E09F5F32
:1009600090932602C9010895809125029091260254
:10097000891B990B0895CF92DF92EF92FF920F930C
:100980001F93CF93DF937C01CB018A0120917302E7
:10099000222389F0EB016B01C40ED51ECC15DD05B9
:1009A00069F06991D701ED91FC910190F081E02D02
:1009B000C7010995F3CF642F0E947502C801DF912A
:1009C000CF911F910F91FF90EF90DF90CF900895FE
:1009D000CF93DF931F92CDB7DEB769832091730267
:1009E0002223F9F020919602203258F021E030E0E5
:1009F000FC013383228390E080E00F90DF91CF9160
:100A0000089580917402E82FF0E0EB58FD4F998132
:100A100090838F5F809374028093960281E090E0D0
:100A2000ECCF61E0CE0101960E947502F7CFCF9323
:100A3000C82F81E08093730287E78093950210921C
:100A400074021092960264EF84E393E00E94E8043B
:100A50006C2F84E393E00E94E804CF910C94DB02B6
:100A600090E080E00895FC0101900020E9F73197C3
:100A7000AF01481B590BBC0187E992E00C94C500FB
:100A80008F929F92AF92BF920F931F93CF93DF935A
:100A9000CDB7DEB7A1970FB6F894DEBF0FBECDBFBE
:100AA00019A2423008F44AE08E010F5D1F4F842ED8
:100AB000912CB12CA12CA50194010E949010E62F3D
:100AC000B901CA01EA30F4F4E05DD801EE938D017A
:100AD000232B242B252B79F790E080E0109719F039
:100AE000CD010E943305A1960FB6F894DEBF0FBE6C
:100AF000CDBFDF91CF911F910F91BF90AF909F908D
:100B00008F900895E95CE1CFCF92DF92EF92FF9250
:100B1000CF93DF936B017C016DE287E992E00E9445
:100B20006501EC0166277727CB016C197D098E09D9
:100B30009F094AE00E9440058C0F9D1FDF91CF91D5
:100B4000FF90EF90DF90CF900895CF93DF930E94B6
:100B50003305EC0184E291E00E9433058C0F9D1F68
:100B6000DF91CF910895CF93DF93C1E0C0937302DB
:100B700097E7909395021092740210929602682F54
:100B800084E393E00E94E8040E94DB02C0937302B6
:100B9000109274021092960262E087E70E94C203EC
:100BA000109226028093250284E393E00E94A10420
:100BB000D82F80E0C82F84E393E00E94A104C82BC3
:100BC000D92B0E94DB02CE01DF91CF9108958EE2F6
:100BD0000E94170565E070E080E090E00E9443020B
:100BE00086EF0C94B305CF93C1E0C093730297E7EF
:100BF000909395021092740210929602682F84E3EB
:100C000093E00E94E8040E94DB02C09373021092FA
:100C100074021092960261E087E70E94C20310926C
:100C200026028093250284E393E00E94A104C82F4A
:100C30000E94DB028C2FCF9108954F925F926F92AA
:100C40007F928F929F92AF92BF92CF92DF92EF925C
:100C5000FF92CF93DF9300D000D01F92CDB7DEB7C5
:100C60000E94E7054C01B12CA12C80914003829594
:100C7000880F880F807C8C5C0E9417058091400350
:100C8000811174C165E070E080E090E00E94430251
:100C900086EF0E94B305B0E0A0E0CC24D82EE92E68
:100CA000FA2E88EF0E94F305A7019601282B2983CD
:100CB0003A834B835C83309140033D83809155039D
:100CC00090915603A5019401281B390B4109510944
:100CD000A0915303B09154030E94D1104B015C01C9
:100CE000AFE0B594A79497948794AA95D1F76091B3
:100CF0004D0370914E03072E000C880B990BBBE03F
:100D0000660F771F881F991FBA95D1F720914F035F
:100D100030915003032E000C440B550B280D391D48
:100D20004A1D5B1D0E94B210820E931EA41EB51EAA
:100D30007501640140EAC41A4FE0D40AE108F108E1
:100D4000A7019601C701B6010E9480104B015C010A
:100D50008CE0B594A794979487948A95D1F7A09145
:100D60004503B09146030E94DC102B013C019DE03D
:100D700075946794579447949A95D1F7A091470337
:100D8000B0914803A50194010E94DC109C015527F5
:100D900037FD5095452F240D351D461D571D2E5FDF
:100DA0003F4F4F4F5F4F62E05595479537952795D9
:100DB0006A95D1F730584F4F5F4FA0915103B091D2
:100DC00052030E94D1102B013C017FE0769467947E
:100DD000579447947A95D1F788E090E05D81851B20
:100DE000910929813A814B815C8104C056954795D0
:100DF000379527958A95D2F729833A834B835C836D
:100E0000A0914903B0914A03A50194010E94DC100E
:100E10004B015C01EBE0B594A79497948794EA9515
:100E2000D1F7A0914303B0914403A70196010E941A
:100E3000DC10FBE09595879577956795FA95D1F746
:100E4000680D791D8A1D9B1D80904103909042037F
:100E5000092C000CAA08BB08A2E0880C991CAA1C4B
:100E6000BB1CAA95D1F7680D791D8A1D9B1D0D80AD
:100E700004C0660F771F881F991F0A94D2F76E5F10
:100E80007F4F8F4F9F4F24E030E040E050E00E94C2
:100E9000B21089819A81AB81BC81821B930BA40B18
:100EA000B50B9C01AD0160E573EC80E090E00D8036
:100EB00004C096958795779567950A94D2F70E9416
:100EC000801097FD66C0660F771F881F991FA301CA
:100ED00092010E94901069017A019927F7FC9A9576
:100EE0008F2D7E2D6D2D9B01AC010E9480109B01EA
:100EF000AC01AEEDBBE00E94D1104B015C01A3E45C
:100F0000B3EEA70196010E94DF10BC01992777FD7F
:100F10009095892F4501BB2497FCB094AB2C680DAC
:100F2000791D8A1D9B1D6153714F8F4F9F4F44E068
:100F300095958795779567954A95D1F76C0D7D1DA9
:100F40008E1D9F1D0F900F900F900F900F90DF91AF
:100F5000CF91FF90EF90DF90CF90BF90AF909F9098
:100F60008F907F906F905F904F900895813029F41B
:100F700068E070E080E090E089CE823029F46EE095
:100F800070E080E090E082CE6AE170E080E090E086
:100F90007DCEA30192010E94901069017A01CC0CD0
:100FA000DD1CEE1CFF1C99CF4F925F926F927F92D7
:100FB0008F929F92AF92BF92CF92DF92EF92FF9269
:100FC0000F931F93CF936B017C01742EAC019B0197
:100FD0000E94460F882399F087E291E0CF911F91FC
:100FE0000F91FF90EF90DF90CF90BF90AF909F90C8
:100FF0008F907F906F905F904F900C9433054601D7
:101000005701E894B7F82FEF3FEF4FE75FE7C501CF
:10101000B4010E94460F81110DC02FEF3FEF4FE743
:101020005FE7C501B4010E94250D18161CF48BE280
:1010300091E0D4CF2FEF3FEF4FE75FE4C701B60158
:101040000E94840E18161CF48FE291E0C7CF2FEF98
:101050003FEF4FE75FECC701B6010E94250D87FD0A
:10106000F3CF20E030E0A901C701B6010E94250DB1
:1010700010E000E087FF0AC06DE287E992E00E947D
:1010800065018C01F7FAF094F7F8F094C0E060E0A5
:1010900070E080E09FE37C1641F020E030E040E229
:1010A00051E40E942A0DCF5FF6CFA70196010E945E
:1010B000B90C2B013C010E94A30D4B015C014AE0DD
:1010C0000E9440057C01E00EF11ECC23C1F1C50158
:1010D000B4010E94D20D9B01AC01C301B2010E9478
:1010E000B80C4B015C016EE287E992E00E94650159
:1010F000E80EF91EC15018F120E030E040E251E462
:10110000C501B4010E94890E2B013C010E94A30D70
:101110004B01B12CA12C4AE0C501B4010E9440054D
:10112000E80EF91EC501B4010E94D20D9B01AC016D
:10113000C301B2010E94B80C4B015C01DBCFC701B7
:10114000CF911F910F91FF90EF90DF90CF90BF90C4
:10115000AF909F908F907F906F905F904F90089589
:1011600085ED8093BC0080916F0290917002A091F8
:101170007102B09172020796A11DB11D23E0B695D0
:10118000A795979587952A95D1F72091BC0024FDC6
:1011900003C010926D02089540916F025091700249
:1011A0006091710270917202452B462B472B69F3B7
:1011B0000097A105B10541F025E32A95F1F700005C
:1011C0000197A109B109E1CF80916E020C94BA0296
:1011D0001F920F920FB60F9211242F933F934F93AC
:1011E0005F936F937F938F939F93AF93BF93EF938F
:1011F000FF9387E992E00E944301FF91EF91BF9135
:10120000AF919F918F917F916F915F914F913F919E
:101210002F910F900FBE0F901F9018951F920F9255
:101220000FB60F9211242F938F939F93EF93FF93F9
:10123000E091A702F091A8028081E091AD02F091C7
:10124000AE0282FD1BC090818091B0028F5F8F73D0
:101250002091B102821741F0E091B002F0E0E9562E
:10126000FD4F958F8093B002FF91EF919F918F91E9
:101270002F910F900FBE0F901F9018958081F4CF83
:101280001F920F920FB60F9211242F933F938F93BB
:101290009F93AF93BF938091190290911A02A091EE
:1012A0001B02B0911C023091180223E0230F2D374E
:1012B00058F50196A11DB11D2093180280931902C3
:1012C00090931A02A0931B02B0931C0280911D02FE
:1012D00090911E02A0911F02B09120020196A11DC3
:1012E000B11D80931D0290931E02A0931F02B09324
:1012F0002002BF91AF919F918F913F912F910F90BD
:101300000FBE0F901F90189526E8230F0296A11D7F
:10131000B11DD2CF1F920F920FB60F9211242F93AF
:101320003F934F935F936F937F938F939F93AF936D
:10133000BF93EF93FF938091B900887F803609F4C3
:101340004AC0F0F5883209F4A7C018F5803109F4D5
:101350009BC0B8F4882309F4F9C0883009F494C01C
:10136000FF91EF91BF91AF919F918F917F916F917D
:101370005F914F913F912F910F900FBE0F901F9053
:101380001895883109F488C0803251F780936B0238
:1013900014C0803409F49DC040F48033B9F388331D
:1013A000F9F680936B0285ECB0C0803509F485C0F6
:1013B000883509F496C0883499F60E94B008D0CFD9
:1013C000883909F48CC038F5883729F050F488360C
:1013D00011F0803729F683E080936D021092170296
:1013E00057C0883809F47BC0803919F0803809F07B
:1013F000B7CF80911702803208F071C0E0911702D8
:1014000081E08E0F809317028091BB00F0E0E950DD
:10141000FE4F80833DC0803B39F0E0F4803A09F410
:1014200079C0883A09F09CCF84E080936D021092D5
:10143000F6011092F501E0912302F0912402099542
:101440008091F50181110FC081E08093F501109228
:10145000D50109C0803C09F4A6CF883C09F4A3CF8C
:10146000883B09F07DCFE091F60181E08E0F8093FB
:10147000F601F0E0EB52FE4F80818093BB0090912B
:10148000F6018091F50129C0809148028093BB004C
:1014900085EC8093BC0064CF90916A0280916902D0
:1014A000981758F5E0916A0281E08E0F80936A02E6
:1014B000F0E0E75BFD4F8081E9CFE0916A0281E0D7
:1014C0008E0F80936A028091BB00F0E0E75BFD4FD6
:1014D000808390916A02809169029817C8F285E82A
:1014E000D8CFE0916A0281E08E0F80936A028091EA
:1014F000BB00F0E0E75BFD4F808380916C028111BF
:101500005CCF81E08093470284EA8093BC00109214
:101510006D0226CF85EC8093BC0010926D02809105
:101520001702803230F4E0911702F0E0E950FE4FEC
:1015300010826091170270E0E0912102F091220286
:1015400087EF91E00995109217020ACF10926B0273
:1015500034CFE7E9F2E01382128288EE93E0A0E054
:10156000B0E084839583A683B78324E031E03183A0
:10157000208325EC30E03587248724EC30E0378762
:10158000268720EC30E0318B208B21EC30E0338B50
:10159000228B22EC30E0358B248B26EC30E0378B2D
:1015A000268B118E128E138E148EE4E3F3E01382D9
:1015B000128284839583A683B78386E191E0918329
:1015C00080830895789484B5826084BD84B58160F9
:1015D00084BD85B5826085BD85B5816085BD8091FE
:1015E0006E00816080936E00109281008091810076
:1015F000826080938100809181008160809381006E
:10160000809180008160809380008091B10084602F
:101610008093B1008091B00081608093B000809190
:101620007A00846080937A0080917A00826080934F
:101630007A0080917A00816080937A0080917A00AC
:10164000806880937A001092C100E091A702F09127
:10165000A80282E08083E091A302F091A4021082AC
:10166000E091A502F091A6028FEC80831092AF0268
:10167000E091AB02F091AC0286E08083E091A90298
:10168000F091AA02808180618083E091A902F091AB
:10169000AA02808188608083E091A902F091AA0269
:1016A000808180688083E091A902F091AA02808104
:1016B0008F7D808383E080934003109226021092F6
:1016C000250210927402109296020E949C0283ECF2
:1016D00090E0909324028093230284EC90E0909316
:1016E00022028093210280ED0E94F305853529F0C6
:1016F00083E391E00E94A505FFCF8AEA0E94B3052B
:1017000090934203809341038CEA0E94B305909327
:101710004403809343038EEA0E94B30590934603EB
:101720008093450380EB0E94B3059093520380930E
:10173000510382EB0E94B3059093540380935303AB
:1017400084EB0E94B305909356038093550386EB78
:101750000E94B305909348038093470388EB0E944F
:10176000B30590934A03809349038AEB0E94B30523
:1017700090934C0380934B038CEB0E94B3059093A2
:101780004E0380934D038EEB0E94B305909350035C
:1017900080934F03C0E0D0E087E691E00E943305DC
:1017A0000E94E7059C0150E040E080915503909134
:1017B0005603281B390B41095109A0915303B091DD
:1017C00054030E94D1106B017C018FE0F594E794E3
:1017D000D794C7948A95D1F760914D0370914E03C9
:1017E000072E000C880B990B2BE0660F771F881FC4
:1017F000991F2A95D1F720914F0330915003032E62
:10180000000C440B550B2C0D3D1D4E1D5F1D0E9401
:10181000B210CA01B9016C0D7D1D8E1D9F1D685F40
:101820007F4F8F4F9F4F34E09595879577956795BC
:101830003A95D1F70E94D40D20E030E040E251E427
:101840000E942A0D42E00E94D40786E791E00E94A0
:10185000A5058AE791E00E9433050E941D0697FFC7
:101860007FC00E94840586E891E00E94A5058AE871
:1018700091E00E9433050E941D060E94D40D20E8CD
:1018800036EE45EC57E40E942A0D21E03EED42E49D
:101890005EE30E94F60E9B01AC0160E070E080E820
:1018A0009FE30E94B80C20E03AE24DE257E40E9428
:1018B000890E42E00E94D40786E991E00E94A505C6
:1018C0008EE991E00E9433050E941D060E94D40D0E
:1018D0000E949C0D97FF48C00E94840586E891E015
:1018E0000E94A50583EC91E00E9433050E941D062D
:1018F0000E94D40D20E03EE346EC57E40E942A0DFE
:1019000021E03EED42E45EE30E94F60E9B01AC0155
:1019100060E070E080E89FE30E94B80C20E03AE2CB
:101920004DE257E40E94890E42E00E94D40786E906
:1019300091E00E94A50584E291E00E94330564EFE6
:1019400071E080E090E00E944302209709F424CFE8
:101950000E942F01882309F41FCF0E9400001CCF92
:101960004AE00E9440057FCF4AE00E944005B6CF82
:101970005058BB27AA270E94D00C0C944A0E0E94F4
:101980003C0E38F00E94430E20F039F49F3F19F4CA
:1019900026F40C94390E0EF4E095E7FB0C94330E0C
:1019A000E92F0E945B0E58F3BA176207730784078A
:1019B000950720F079F4A6F50C947D0E0EF4E095D1
:1019C0000B2EBA2FA02D0B01B90190010C01CA01F9
:1019D000A0011124FF27591B99F0593F50F4503EA4
:1019E00068F11A16F040A22F232F342F4427585F96
:1019F000F3CF469537952795A795F0405395C9F7AE
:101A00007EF41F16BA0B620B730B840BBAF0915065
:101A1000A1F0FF0FBB1F661F771F881FC2F70EC004
:101A2000BA0F621F731F841F48F4879577956795D7
:101A3000B795F7959E3F08F0B0CF9395880F08F0C3
:101A40009927EE0F9795879508950E940F0E08F439
:101A500081E008950E943E0D0C944A0E0E94430EB0
:101A600058F00E943C0E40F029F45F3F29F00C949E
:101A7000330E51110C947E0E0C94390E0E945B0EA5
:101A800068F39923B1F3552391F3951B550BBB27AD
:101A9000AA2762177307840738F09F5F5F4F220FF2
:101AA000331F441FAA1FA9F335D00E2E3AF0E0E8E9
:101AB00032D091505040E695001CCAF72BD0FE2F33
:101AC00029D0660F771F881FBB1F261737074807C7
:101AD000AB07B0E809F0BB0B802DBF01FF2793587F
:101AE0005F4F3AF09E3F510578F00C94330E0C9402
:101AF0007E0E5F3FE4F3983ED4F386957795679525
:101B0000B795F7959F5FC9F7880F911D96958795B3
:101B100097F90895E1E0660F771F881FBB1F6217D2
:101B200073078407BA0720F0621B730B840BBA0B90
:101B3000EE1F88F7E09508950E94A30D6894B111F7
:101B40000C947E0E08950E94630E88F09F5798F0C3
:101B5000B92F9927B751B0F0E1F0660F771F881FB2
:101B6000991F1AF0BA95C9F714C0B13091F00E94CC
:101B70007D0EB1E008950C947D0E672F782F882795
:101B8000B85F39F0B93FCCF3869577956795B395F3
:101B9000D9F73EF490958095709561957F4F8F4F62
:101BA0009F4F0895E89409C097FB3EF49095809567
:101BB000709561957F4F8F4F9F4F9923A9F0F92F13
:101BC00096E9BB279395F695879577956795B79591
:101BD000F111F8CFFAF4BB0F11F460FF1BC06F5F77
:101BE0007F4F8F4F9F4F16C0882311F096E911C089
:101BF000772321F09EE8872F762F05C0662371F0AA
:101C000096E8862F70E060E02AF09A95660F771FBD
:101C1000881FDAF7880F9695879597F90895990F99
:101C20000008550FAA0BE0E8FEEF16161706E807A6
:101C3000F907C0F012161306E407F50798F0621BC7
:101C4000730B840B950B39F40A2661F0232B242B9C
:101C5000252B21F408950A2609F4A140A6958FEFBB
:101C6000811D811D089597F99F6780E870E060E00D
:101C700008959FEF80EC089500240A941616170625
:101C800018060906089500240A941216130614066D
:101C900005060895092E0394000C11F4882352F0D0
:101CA000BB0F40F4BF2B11F460FF04C06F5F7F4F88
:101CB0008F4F9F4F089557FD9058440F551F59F06F
:101CC0005F3F71F04795880F97FB991F61F09F3F29
:101CD00079F087950895121613061406551FF2CF52
:101CE0004695F1DF08C0161617061806991FF1CFA2
:101CF00086957105610508940895E894BB276627C9
:101D00007727CB0197F908950E940F0E08F48FEF03
:101D100008950E949C0E0C944A0E0E943C0E38F0CE
:101D20000E94430E20F0952311F00C94330E0C9476
:101D3000390E11240C947E0E0E945B0E70F3959F59
:101D4000C1F3950F50E0551F629FF001729FBB27B2
:101D5000F00DB11D639FAA27F00DB11DAA1F649F4E
:101D60006627B00DA11D661F829F2227B00DA11D01
:101D7000621F739FB00DA11D621F839FA00D611D87
:101D8000221F749F3327A00D611D231F849F600DA8
:101D9000211D822F762F6A2F11249F5750409AF0D1
:101DA000F1F088234AF0EE0FFF1FBB1F661F771F5D
:101DB000881F91505040A9F79E3F510580F00C9428
:101DC000330E0C947E0E5F3FE4F3983ED4F3869579
:101DD00077956795B795F795E7959F5FC1F7FE2BC8
:101DE000880F911D9695879597F90895FA01EE0F42
:101DF000FF1F309621053105A1F16115710561F4D0
:101E00008038BFE39B0749F168949038810561F001
:101E10008038BFEF9B0741F099234AF5FF3FE1056A
:101E20003105210519F1E8940894E795D901AA2311
:101E300029F4AB2FBE2FF85FD0F310C0FF5F70F412
:101E4000A695E0F7F73950F019F0FF3A38F49F778C
:101E50009F930DD00F9007FC9058089546F00C9476
:101E6000390E60E070E080E89FE308954FE79F77C8
:101E70005F934F933F932F930E94F60F2F913F91C3
:101E80004F915F910E94890E0C94530F0E940F0E88
:101E9000880B990B089529F416F00C94330E0C94CA
:101EA0007D0E0C94390E0E94630EA8F39638A0F7AD
:101EB00007F80F92E8942BE33AEA48EB5FE70E94B9
:101EC0009F0E0F920F920F924DB75EB70F920E9426
:101ED0003E10E8E6F0E00E94850F4F915F91EF9190
:101EE000FF91E595EE1FFF1F49F0FE57E06844277C
:101EF000EE0F441FFA95E1F74195550B0E94B80F7C
:101F00000F9007FE0C94AC0F0895DF93CF931F93AF
:101F10000F93FF92EF92DF927B018C01689406C0D1
:101F2000DA2EEF010E949C0EFE01E894A591259106
:101F3000359145915591A6F3EF010E94D00CFE0119
:101F40009701A801DA9469F7DF90EF90FF900F9165
:101F50001F91CF91DF9108959B01AC0160E070E08B
:101F600080E89FE30C942A0D0C94330E0C947210AD
:101F70000E94630ED8F39923C9F3940F511DA3F364
:101F80009150504094F059F0882332F0660F771F3B
:101F9000881F91505040C1F79E3F51052CF7880F84
:101FA000911D9695879597F908955F3FACF0983EFF
:101FB0009CF0BB27869577956795B79508F4B16037
:101FC0009395C1F7BB0F58F711F460FFE8CF6F5F2F
:101FD0007F4F8F4F9F4FE3CF0C947E0E16F00C94E3
:101FE00072100C94390E68940C94330E0E94630E98
:101FF000A8F39923C1F3AEF3DF93CF931F930F930D
:10200000FF92C92FDD2788232AF02197660F771FBB
:10201000881FDAF720E030E040E85FEB9FE3883983
:1020200020F0803E38F021968F770E94B90CE0E9CD
:10203000F0E004C00E94B90CEDEBF0E00E94850FC7
:102040008B01BE01EC01FB2E6F5771097595771F4F
:10205000880B990B0E94D40D28E132E741E35FE33E
:102060000E949C0EAF2D9801AE01FF900F911F9121
:10207000CF91DF910E94D00C0C944A0EFA01DC0142
:10208000AA0FBB1F9B01AC01BF5728F4222733279F
:102090004427507820C0B75190F4AB2F00244695C8
:1020A00037952795011CA395D2F3002071F0220FDC
:1020B000331F441FB395DAF30ED00C94B80C613083
:1020C0007105A0E88A07B94630F49B01AC01662788
:1020D000772788279078309621F0208331834283B8
:1020E000538308959F3F31F0915020F48795779561
:1020F0006795B795880F911D9695879597F90895DF
:10210000DB018F939F930E94D110BF91AF91A29F4B
:10211000800D911DA39F900DB29F900D11240895E5
:10212000A1E21A2EAA1BBB1BFD010DC0AA1FBB1FDB
:10213000EE1FFF1FA217B307E407F50720F0A21B4D
:10214000B30BE40BF50B661F771F881F991F1A94BA
:1021500069F760957095809590959B01AC01BD01E4
:10216000CF010895052E97FB1EF400940E94C9101C
:1021700057FD07D00E94901007FC03D04EF40C943A
:10218000C91050954095309521953F4F4F4F5F4F67
:10219000089590958095709561957F4F8F4F9F4FD3
:1021A00008950E94EA10A59F900DB49F900DA49FE2
:1021B000800D911D11240895B7FF0C94D1100E9439
:1021C000D110821B930B0895EE0FFF1F0590F49121
:1021D000E02D0994A29FB001B39FC001A39F700D91
:1021E000811D1124911DB29F700D811D1124911D1F
:0621F0000895F894FFCFF2
:1021F600000000006501C500F200B20123010101E3
:10220600150100000000E804BB0430059104B40485
:10221600A10492040D0A006E616E00696E66006F7D
:10222600766600436F756C64206E6F742066696E07
:102236006420612076616C696420424D50303835E7
:102246002073656E736F722C20636865636B2077ED
:102256006972696E67210054656D70657261747587
:102266007265203D2000202A430050726573737505
:102276007265203D200020506100416C74697475C0
:102286006465203D2000206D657465727300507290
:10229600657373757265206174207365616C65760C
:1022A600656C202863616C63756C617465642920B4
:1022B6003D20005265616C20616C746974756465BB
:0422C600203D200097
:00000001FF
